{
  "contractName": "CreditDelegation",
  "abi": [
    {
      "inputs": [],
      "stateMutability": "nonpayable",
      "type": "constructor"
    },
    {
      "inputs": [
        {
          "internalType": "address",
          "name": "asset",
          "type": "address"
        },
        {
          "internalType": "uint256",
          "name": "amount",
          "type": "uint256"
        },
        {
          "internalType": "bool",
          "name": "isPull",
          "type": "bool"
        }
      ],
      "name": "depositCollateral",
      "outputs": [],
      "stateMutability": "nonpayable",
      "type": "function"
    },
    {
      "inputs": [
        {
          "internalType": "address",
          "name": "borrower",
          "type": "address"
        },
        {
          "internalType": "uint256",
          "name": "amount",
          "type": "uint256"
        },
        {
          "internalType": "address",
          "name": "asset",
          "type": "address"
        }
      ],
      "name": "approveBorrower",
      "outputs": [],
      "stateMutability": "nonpayable",
      "type": "function"
    },
    {
      "inputs": [
        {
          "internalType": "uint256",
          "name": "amount",
          "type": "uint256"
        },
        {
          "internalType": "address",
          "name": "asset",
          "type": "address"
        }
      ],
      "name": "repayBorrower",
      "outputs": [],
      "stateMutability": "nonpayable",
      "type": "function"
    },
    {
      "inputs": [
        {
          "internalType": "address",
          "name": "asset",
          "type": "address"
        }
      ],
      "name": "withdrawCollateral",
      "outputs": [],
      "stateMutability": "nonpayable",
      "type": "function"
    }
  ],
  "bytecode": "0x608060405234801561001057600080fd5b50336000806101000a81548173ffffffffffffffffffffffffffffffffffffffff021916908373ffffffffffffffffffffffffffffffffffffffff160217905550610dca806100606000396000f3fe608060405234801561001057600080fd5b506004361061004c5760003560e01c80630bdc85d514610051578063102680e3146100bf578063928d300e1461010d578063e5feb78114610151575b600080fd5b6100bd6004803603606081101561006757600080fd5b81019080803573ffffffffffffffffffffffffffffffffffffffff16906020019092919080359060200190929190803573ffffffffffffffffffffffffffffffffffffffff1690602001909291905050506101ab565b005b61010b600480360360408110156100d557600080fd5b8101908080359060200190929190803573ffffffffffffffffffffffffffffffffffffffff16906020019092919050505061030a565b005b61014f6004803603602081101561012357600080fd5b81019080803573ffffffffffffffffffffffffffffffffffffffff169060200190929190505050610462565b005b6101a96004803603606081101561016757600080fd5b81019080803573ffffffffffffffffffffffffffffffffffffffff169060200190929190803590602001909291908035151590602001909291905050506106dc565b005b600073744c1aaa95232eef8a9994c4e0b3a89659d9ab7973ffffffffffffffffffffffffffffffffffffffff1663d2493b6c836040518263ffffffff1660e01b8152600401808273ffffffffffffffffffffffffffffffffffffffff16815260200191505060606040518083038186803b15801561022857600080fd5b505afa15801561023c573d6000803e3d6000fd5b505050506040513d606081101561025257600080fd5b81019080805190602001909291908051906020019092919080519060200190929190505050509150508073ffffffffffffffffffffffffffffffffffffffff1663c04a8a1085856040518363ffffffff1660e01b8152600401808373ffffffffffffffffffffffffffffffffffffffff16815260200182815260200192505050600060405180830381600087803b1580156102ec57600080fd5b505af1158015610300573d6000803e3d6000fd5b5050505050505050565b6103373330848473ffffffffffffffffffffffffffffffffffffffff16610818909392919063ffffffff16565b610376739fe532197ad76c5a68961439604c037eb79681f0838373ffffffffffffffffffffffffffffffffffffffff166108d99092919063ffffffff16565b739fe532197ad76c5a68961439604c037eb79681f073ffffffffffffffffffffffffffffffffffffffff1663573ade8182846001306040518563ffffffff1660e01b8152600401808573ffffffffffffffffffffffffffffffffffffffff1681526020018481526020018381526020018273ffffffffffffffffffffffffffffffffffffffff168152602001945050505050602060405180830381600087803b15801561042257600080fd5b505af1158015610436573d6000803e3d6000fd5b505050506040513d602081101561044c57600080fd5b8101908080519060200190929190505050505050565b600073744c1aaa95232eef8a9994c4e0b3a89659d9ab7973ffffffffffffffffffffffffffffffffffffffff1663d2493b6c836040518263ffffffff1660e01b8152600401808273ffffffffffffffffffffffffffffffffffffffff16815260200191505060606040518083038186803b1580156104df57600080fd5b505afa1580156104f3573d6000803e3d6000fd5b505050506040513d606081101561050957600080fd5b810190808051906020019092919080519060200190929190805190602001909291905050505050905060008173ffffffffffffffffffffffffffffffffffffffff166370a08231306040518263ffffffff1660e01b8152600401808273ffffffffffffffffffffffffffffffffffffffff16815260200191505060206040518083038186803b15801561059b57600080fd5b505afa1580156105af573d6000803e3d6000fd5b505050506040513d60208110156105c557600080fd5b81019080805190602001909291905050509050739fe532197ad76c5a68961439604c037eb79681f073ffffffffffffffffffffffffffffffffffffffff166369328dec848360008054906101000a900473ffffffffffffffffffffffffffffffffffffffff166040518463ffffffff1660e01b8152600401808473ffffffffffffffffffffffffffffffffffffffff1681526020018381526020018273ffffffffffffffffffffffffffffffffffffffff1681526020019350505050602060405180830381600087803b15801561069b57600080fd5b505af11580156106af573d6000803e3d6000fd5b505050506040513d60208110156106c557600080fd5b810190808051906020019092919050505050505050565b80156107105761070f3330848673ffffffffffffffffffffffffffffffffffffffff16610818909392919063ffffffff16565b5b61074f739fe532197ad76c5a68961439604c037eb79681f0838573ffffffffffffffffffffffffffffffffffffffff166108d99092919063ffffffff16565b739fe532197ad76c5a68961439604c037eb79681f073ffffffffffffffffffffffffffffffffffffffff1663e8eda9df84843060006040518563ffffffff1660e01b8152600401808573ffffffffffffffffffffffffffffffffffffffff1681526020018481526020018373ffffffffffffffffffffffffffffffffffffffff168152602001828152602001945050505050600060405180830381600087803b1580156107fb57600080fd5b505af115801561080f573d6000803e3d6000fd5b50505050505050565b6108d3846323b872dd60e01b858585604051602401808473ffffffffffffffffffffffffffffffffffffffff1681526020018373ffffffffffffffffffffffffffffffffffffffff1681526020018281526020019350505050604051602081830303815290604052907bffffffffffffffffffffffffffffffffffffffffffffffffffffffff19166020820180517bffffffffffffffffffffffffffffffffffffffffffffffffffffffff8381831617835250505050610a9e565b50505050565b60008114806109a7575060008373ffffffffffffffffffffffffffffffffffffffff1663dd62ed3e30856040518363ffffffff1660e01b8152600401808373ffffffffffffffffffffffffffffffffffffffff1681526020018273ffffffffffffffffffffffffffffffffffffffff1681526020019250505060206040518083038186803b15801561096a57600080fd5b505afa15801561097e573d6000803e3d6000fd5b505050506040513d602081101561099457600080fd5b8101908080519060200190929190505050145b6109fc576040517f08c379a0000000000000000000000000000000000000000000000000000000008152600401808060200182810382526036815260200180610d5f6036913960400191505060405180910390fd5b610a998363095ea7b360e01b8484604051602401808373ffffffffffffffffffffffffffffffffffffffff16815260200182815260200192505050604051602081830303815290604052907bffffffffffffffffffffffffffffffffffffffffffffffffffffffff19166020820180517bffffffffffffffffffffffffffffffffffffffffffffffffffffffff8381831617835250505050610a9e565b505050565b610abd8273ffffffffffffffffffffffffffffffffffffffff16610ce9565b610b2f576040517f08c379a000000000000000000000000000000000000000000000000000000000815260040180806020018281038252601f8152602001807f5361666545524332303a2063616c6c20746f206e6f6e2d636f6e74726163740081525060200191505060405180910390fd5b600060608373ffffffffffffffffffffffffffffffffffffffff16836040518082805190602001908083835b60208310610b7e5780518252602082019150602081019050602083039250610b5b565b6001836020036101000a0380198251168184511680821785525050505050509050019150506000604051808303816000865af19150503d8060008114610be0576040519150601f19603f3d011682016040523d82523d6000602084013e610be5565b606091505b509150915081610c5d576040517f08c379a00000000000000000000000000000000000000000000000000000000081526004018080602001828103825260208152602001807f5361666545524332303a206c6f772d6c6576656c2063616c6c206661696c656481525060200191505060405180910390fd5b600081511115610ce357808060200190516020811015610c7c57600080fd5b8101908080519060200190929190505050610ce2576040517f08c379a000000000000000000000000000000000000000000000000000000000815260040180806020018281038252602a815260200180610d35602a913960400191505060405180910390fd5b5b50505050565b60008060007fc5d2460186f7233c927e7db2dcc703c0e500b653ca82273b7bfad8045d85a47060001b9050833f9150808214158015610d2b57506000801b8214155b9250505091905056fe5361666545524332303a204552433230206f7065726174696f6e20646964206e6f7420737563636565645361666545524332303a20617070726f76652066726f6d206e6f6e2d7a65726f20746f206e6f6e2d7a65726f20616c6c6f77616e6365a2646970667358221220efe776cb629ac16e00d6a794e8bf47659c389c9a1c7860e7dedf11088ff8a95164736f6c634300060c0033",
  "immutableReferences": {},
  "source": "// SPDX-License-Identifier: agpl-3.0\npragma solidity 0.6.12;\n\n\nimport { IERC20, ILendingPool, IProtocolDataProvider, IStableDebtToken } from './Interfaces.sol';\nimport { SafeERC20 } from './Libraries.sol';\n\n/**\n * This is a proof of concept starter contract, showing how uncollaterised loans are possible\n * using Aave v2 credit delegation.\n * This example supports stable interest rate borrows.\n * It is not production ready (!). User permissions and user accounting of loans should be implemented.\n * See @dev comments\n */\n \ncontract CreditDelegation {\n    using SafeERC20 for IERC20;\n    \n    ILendingPool constant lendingPool = ILendingPool(address(0x9FE532197ad76c5a68961439604C037EB79681F0)); // Kovan\n    IProtocolDataProvider constant dataProvider = IProtocolDataProvider(address(0x744C1aaA95232EeF8A9994C4E0b3a89659D9AB79)); // Kovan\n    \n    address owner;\n\n    constructor () public {\n        owner = msg.sender;\n    }\n\n    /**\n     * Deposits collateral into the Aave, to enable credit delegation\n     * This would be called by the delegator.\n     * @param asset The asset to be deposited as collateral\n     * @param amount The amount to be deposited as collateral\n     * @param isPull Whether to pull the funds from the caller, or use funds sent to this contract\n     *  User must have approved this contract to pull funds if `isPull` = true\n     * \n     */\n    function depositCollateral(address asset, uint256 amount, bool isPull) public {\n        if (isPull) {\n            IERC20(asset).safeTransferFrom(msg.sender, address(this), amount);\n        }\n        IERC20(asset).safeApprove(address(lendingPool), amount);\n        lendingPool.deposit(asset, amount, address(this), 0);\n    }\n\n    /**\n     * Approves the borrower to take an uncollaterised loan\n     * @param borrower The borrower of the funds (i.e. delgatee)\n     * @param amount The amount the borrower is allowed to borrow (i.e. their line of credit)\n     * @param asset The asset they are allowed to borrow\n     * \n     * Add permissions to this call, e.g. only the owner should be able to approve borrowers!\n     */\n    function approveBorrower(address borrower, uint256 amount, address asset) public {\n        (, address stableDebtTokenAddress,) = dataProvider.getReserveTokensAddresses(asset);\n        IStableDebtToken(stableDebtTokenAddress).approveDelegation(borrower, amount);\n    }\n    \n    /**\n     * Repay an uncollaterised loan\n     * @param amount The amount to repay\n     * @param asset The asset to be repaid\n     * \n     * User calling this function must have approved this contract with an allowance to transfer the tokens\n     * \n     * You should keep internal accounting of borrowers, if your contract will have multiple borrowers\n     */\n    function repayBorrower(uint256 amount, address asset) public {\n        IERC20(asset).safeTransferFrom(msg.sender, address(this), amount);\n        IERC20(asset).safeApprove(address(lendingPool), amount);\n        lendingPool.repay(asset, amount, 1, address(this));\n    }\n    \n    /**\n     * Withdraw all of a collateral as the underlying asset, if no outstanding loans delegated\n     * @param asset The underlying asset to withdraw\n     * \n     * Add permissions to this call, e.g. only the owner should be able to withdraw the collateral!\n     */\n    function withdrawCollateral(address asset) public {\n        (address aTokenAddress,,) = dataProvider.getReserveTokensAddresses(asset);\n        uint256 assetBalance = IERC20(aTokenAddress).balanceOf(address(this));\n        lendingPool.withdraw(asset, assetBalance, owner);\n    }\n}",
  "sourcePath": "/home/bahti/Desktop/market-make/flashsnap/contracts/CreditDelegation.sol",
  "compiler": {
    "name": "solc",
    "version": "0.6.12+commit.27d51765.Emscripten.clang"
  },
  "schemaVersion": "3.3.3",
  "updatedAt": "2021-02-07T21:37:16.504Z",
  "devdoc": {
    "details": "comments",
    "kind": "dev",
    "methods": {
      "approveBorrower(address,uint256,address)": {
        "params": {
          "amount": "The amount the borrower is allowed to borrow (i.e. their line of credit)",
          "asset": "The asset they are allowed to borrow  Add permissions to this call, e.g. only the owner should be able to approve borrowers!",
          "borrower": "The borrower of the funds (i.e. delgatee)"
        }
      },
      "depositCollateral(address,uint256,bool)": {
        "params": {
          "amount": "The amount to be deposited as collateral",
          "asset": "The asset to be deposited as collateral",
          "isPull": "Whether to pull the funds from the caller, or use funds sent to this contract  User must have approved this contract to pull funds if `isPull` = true "
        }
      },
      "repayBorrower(uint256,address)": {
        "params": {
          "amount": "The amount to repay",
          "asset": "The asset to be repaid  User calling this function must have approved this contract with an allowance to transfer the tokens  You should keep internal accounting of borrowers, if your contract will have multiple borrowers"
        }
      },
      "withdrawCollateral(address)": {
        "params": {
          "asset": "The underlying asset to withdraw  Add permissions to this call, e.g. only the owner should be able to withdraw the collateral!"
        }
      }
    },
    "version": 1
  },
  "userdoc": {
    "kind": "user",
    "methods": {
      "approveBorrower(address,uint256,address)": {
        "notice": "Approves the borrower to take an uncollaterised loan"
      },
      "depositCollateral(address,uint256,bool)": {
        "notice": "Deposits collateral into the Aave, to enable credit delegation This would be called by the delegator."
      },
      "repayBorrower(uint256,address)": {
        "notice": "Repay an uncollaterised loan"
      },
      "withdrawCollateral(address)": {
        "notice": "Withdraw all of a collateral as the underlying asset, if no outstanding loans delegated"
      }
    },
    "notice": "This is a proof of concept starter contract, showing how uncollaterised loans are possible using Aave v2 credit delegation. This example supports stable interest rate borrows. It is not production ready (!). User permissions and user accounting of loans should be implemented.",
    "version": 1
  }
}